:020000040000FA
:06000000BFEF0BF012003F
:06002A000100CC170000EC
:08003000800000002C0000001C
:0800380058EC05F0FB0EDBCFD4
:10004000F3FFDB06F35000090AE0A6EC05F0FA0E18
:1000500011EC06F0F3E1151CF1E1010E01D0000EE8
:1000600087EF05F058EC05F03B0EE12402E3E16870
:10007000E652E16E010EDB6A020EDB6AF90EDBCF9F
:10008000F6FFFA0EDBCFF7FFFB0EDBCFF8FF080021
:10009000F550DF6EDF5002E1ABEF04F0250EDF5CC0
:1000A00002E09EEF04F0030EDB6A040EDB6A050E2D
:1000B000DB6A060EDB6A070EDB6AC0EC04F02D0E6D
:1000C000DF5C0CE02B0EDF5C09E0200EDF5C06E05D
:1000D000230EDF5C03E0300EDF5C1AE1DF50300AF4
:1000E00014E0130A0FE0030A0AE00B0A05E0060A0F
:1000F000E4E1030EDB80E1D7030EDB82DED7030EE3
:10010000DB84DBD7030EDB86D8D7030EDB88D5D79D
:100110002A0EDF5C1BE1BCEC04F00AEC05F010E0F9
:10012000030EDB8008680968130EDBCF0DF0140E98
:10013000DBCF0EF05BEC0AF0040E06C0DBFF03D051
:10014000130EF3EC04F0C0EC04F00BD0090EDB6AE4
:1001500061EC05F003E0D5EC05F0FAD7090EF3ECFD
:1001600004F0030EDBB0DB982E0EDF5C1BE1C0EC6D
:1001700004F02A0EDF5C0BE1BCEC04F00AEC05F0A5
:1001800003E1130E45EC05F0C0EC04F00BD0090EB2
:10019000DB6A61EC05F003E0D5EC05F0FAD7090E57
:1001A00045EC05F0680EDF5C07E1C0EC04F0680E7A
:1001B000DF5C1DE1030E18D0740EDF5C17E07A0ED1
:1001C000DF5C14E0480EDF5C06E0540EDF5C03E009
:1001D0005A0EDF5C02E1020E07D06C0EDF5C03E01A
:1001E0006A0EDF5C04E1010E98EC05F0C9DBDF501C
:1001F0006E0A01E17FD31E0A01E192D1200A01E1DA
:100200008FD13F0A01E149D11A0A01E146D10D0A15
:1002100001E143D1200A01E140D13A0A01E13DD197
:10022000200A01E13AD1260A01E135D10D0A01E1A6
:1002300032D11A0A01E1D9D0200A4AE0300A1FE07F
:10024000460A0EE0250A01E083D3D950F90FE96E82
:10025000FF0EDA20EA6E010EEE5E000EEE5AEE5A46
:10026000A6EC05F0250EE66E95DB03E1151C01E119
:1002700069D3A2EC05F001E26BD3DB2A69D3080E47
:10028000DB6A040EDB50010806E2040EDB046AECB4
:1002900005F0DB508BDB080EDB5009E0030EDB5072
:1002A000010B05E172DB01E04DD3080EDB6A64DB74
:1002B000EFCFDFFF1AEC06F003E1151C01E142D39A
:1002C000A2EC05F001E3DB2A60DB01E141D33AD384
:1002D000070EDB5002080FE1E6EC05F0030EADEC73
:1002E00005F00E0EEECFDBFF0F0EEECFDBFF100E94
:1002F000EECFDBFF20D0F70EDBCF17F0F80EDBCF11
:1003000018F0020E175E000E185AF70E17C0DBFF2A
:10031000F80E18C0DBFF17C0E9FF18C0EAFF9DEC1C
:1003200005F0166A0E0E14C0DBFF0F0E15C0DBFFC2
:10033000100E16C0DBFF0E0EDBCFE6FF0F0EDBCF7D
:10034000E6FF100EDBCFE6FF36EC0AF0E552E55291
:10035000E552130E07C0DBFF140E08C0DBFF060ECC
:10036000DB5005E0130EE1EC05F001E26ADB05EC81
:1003700006F002E2130E37DBC8EC05F006E0040ECF
:10038000E1EC05F002E2050E2EDB030EDBB005D03A
:10039000FCDA01E0D7D2080EDB6A090EDB6A0E0E2A
:1003A000DBCFF6FF0F0EDBCFF7FF100EDBCFF8FF32
:1003B0000800F550DF6EDF5014E00BEC06F011E2A0
:1003C0001AEC06F003E1151C01E1BCD2BBDB01E332
:1003D000DB2A090EDB2AD9500E0FE96E000ECBDBAB
:1003E000E7D7D3DA01E1B4D2ADD2C6DA110EEECF3F
:1003F000DBFF120EEDCFDBFF110EDBCFE6FF120E9F
:10040000DBCFE6FF28EC0AF0E552E552130EF3CFFE
:10041000DBFF140EF4CFDBFF060EDB5004E0130EFF
:10042000D0DB01E20EDB05EC06F002E2130EDBDAB4
:10043000AFDB05E0040EC5DB02E2050ED4DA030EE5
:10044000DBB005D0A2DA01E07DD2080EDB6A090E2E
:10045000DB6A110EDBCFE9FF120EDBCFEAFFEFCF35
:10046000DFFFDF5014E0D7DB12E2E4DB03E1151C11
:1004700001E168D267DB01E3DB2A090EDB2A110EFA
:10048000DB2ADBCFE9FF120EE8E3DB2AE6D77DDAD1
:1004900001E15ED257D2030EDB8E070EDB0410E1C2
:1004A00095DB040E5ADB0A0EEECFDBFF0B0EEECF10
:1004B000DBFF0C0EEECFDBFF0D0EEECFDBFF6CD0C3
:1004C000070EDB5003082CE1030EDBAE0DD0B2DAD1
:1004D000020E76DAEFCF14F0156A166A176A14AEB8
:1004E00039D01568166835D0F70EDBCF15F0F80E49
:1004F000DBCF16F0020E155E000E165AF70E15C071
:10050000DBFFF80E16C0DBFF15C0E9FF16C0EAFFDF
:10051000EFCF14F00A0E14C0DBFF0B0EDB6A38D0ED
:10052000070EDB50020809E1030EDBAE04D059DBF5
:1005300016AE10D00ED055DB0DD0030EDBAE12D0B0
:1005400079DA020E3DDAF9DA166A176A15AE02D0C8
:1005500016681768E2DA0C0E16C0DBFF0D0E17C026
:10056000DBFF1AD0F70EDBCF16F0F80EDBCF17F05B
:10057000020E165E000E175AF70E16C0DBFFF80EBD
:1005800017C0DBFF16C0E9FF17C0EAFFD6DAC5DAED
:100590000C0EDB6A0D0EDB6A060EDB5005E1010E68
:1005A000F36E050EF3CFDBFF150EDB6A160EDB6A6A
:1005B000D950370F146E000EDA20156E390E14C0A4
:1005C000DBFF3A0E15C0DBFF380EDB6A080EDB6A74
:1005D0000A0EAEDADF50780A12E0200A10E0280A8C
:1005E0000CE0200A0AE03F0A06E00D0A02E0200AB9
:1005F00008E1020E05D0080E03D0080EDF26100E0B
:1006000097DA030EDBBE02D0DB92DB94DB50800B6B
:1006100024E08ADAD890030EEB50000A08E6000EB8
:10062000EE5C000EEE58000EEE58000EEE5815E28D
:1006300013DA0B680C680D680E68F0EC09F00A0E0E
:1006400002C0DBFF0B0E03C0DBFF0C0E04C0DBFFA0
:100650000D0E05C0DBFF2D0E08D0030EDBA202D06D
:100660002B0E03D0DBA408D0200EF36E170EF3CFB1
:10067000DBFF150EDB2A02D0170EDB6A050EDB50FE
:1006800003E1B7D901E189D0B60E146E170E156ECD
:10069000000E166E070EDBCF17F0186A196A1A6A79
:1006A00017C00BF018C00CF019C00DF01AC00EF0F6
:1006B000D3D92CEC0BF014500224F36E1550032008
:1006C000F46E16500420F86EF4CFF7FFF3CFF6FF68
:1006D0000800090EF5CFDBFF580EDF5C0FE1610E5D
:1006E000F36E090E7BD90AE3200E146E090EDBCFE0
:1006F000E7FF1450E75E090EE7CFDBFF070EDBCF05
:1007000014F0156A166A176A0FDA14C00BF015C0D8
:100710000CF016C00DF017C00EF0EECF06F0EECFC5
:1007200007F0EECF08F0EFCF09F02CEC0BF009C08A
:10073000EDFF08C0EDFF07C0EDFF06C0EFFF390E6B
:10074000DBCFE9FFDB063A0EDBCFEAFF01E2DB0697
:10075000090EDBCFEFFF150EDB2A4BD995E1030E17
:10076000DBA61DD06F0EDF5C06E1C1D918E3150EC4
:10077000DB285BDA14D0780EDF5C09E0580EDF5C12
:1007800006E0620EDF5C03E0420EDF5C08E1020E71
:10079000F36E160EF3CFDBFF02D0150EDB6A030EED
:1007A000DB50100B0EE0040EDBCF14F0050EDB5017
:1007B000D880145406E2060EDB5003E1040EDB5031
:1007C00034DA95D90AE2050EDBCFE7FF150EDB50D0
:1007D000E75E050EE7CFDBFF02D0050EDB6A040EF5
:1007E000DBCF14F0160E45D9D880145414E2160E3F
:1007F000DBCFE6FF150EDBCFE6FF040EDBCFE6FF17
:10080000050EDB50E552E75CE552D880E754E5522F
:10081000D880E7545FD9030EDB50010B0BE1080EC3
:10082000DB5008E0B2D801E08DD0080EDB50BED816
:10083000080EDB6A170EDB5007E088D9170EF1D9D6
:1008400003E1151C01E17ED0160EDB5016E07ED9C7
:10085000300EE66E9FD802E1151C74E077D9DFCF29
:10086000E6FFAEEC09F0E552E552E552F4CF15F0A3
:100870000001F31C02E1151C65E0050EDBCF14F04E
:10088000160EDB50D880145409E2050EDBCFE7FFCB
:10089000160EDB50E75E050EE7CFDBFF300EE66E8F
:1008A000050ECBD94FE1390EDB2ADBCFE9FF3A0E3B
:1008B00001E3DB2ADBCFEAFF090EEFCFDBFFDB50E2
:1008C0000EE044D9090EADD902E1151C3BE0390E0A
:1008D000DB2ADBCFE9FF3A0EEDE3DB2AEBD755D875
:1008E00031E1160EDBCFE6FF080EC3D8E552E72450
:1008F0005DD82ED0070EDB50030A1CE0010A14E07D
:10090000030A07E07BD9DBCFEEFF020EDBCFEDFF62
:100910001FD0F5D8196A17AE02D0186819682CD8FC
:10092000BCD819C0EEFF14D0EAD817BE186824D876
:10093000B4D80ED063D9DBCFEFFF0AD07BD905E165
:10094000151C03E1F368F46810D0FCD801E3DB2A3E
:1009500079D947EF00F0010EDBCF14F0020EDBCFA8
:1009600015F014C0F3FF15C0F4FF3B0EE15C02E28A
:10097000E16AE552E16ECBD029D9020EADEF05F068
:1009800061D90800F550DF6E1200200EE66E080EE9
:100990001DEF06F0AEEC09F0E552E552E552F3CF5B
:1009A00014F0F4CF15F00001F31C1200146E156A58
:1009B000D950010F4DD91450EE261550ED221200DA
:1009C000185E000E195AF70E18C0DBFFF80E19C09A
:1009D000DBFF18C0E9FF19C0EAFF1200DBCFF4FF0C
:1009E000F350F45C1200DB50E76E040EE7CFDBFF40
:1009F00012000A0EDBCF14F00B0EDBCF15F00C0E3D
:100A0000DBCF16F00D0EDBCF17F0145015101610BB
:100A100017101200130EEECFDBFF140EEDCFDBFF2D
:100A2000130EDBCF14F0140EDBCF15F00001800E97
:100A300015141200F70EDBCF18F0F80EDBCF19F00B
:100A40001200050EDB50E66ED950130F01D9E552A6
:100A5000E750EE6EED6A12000A0EDBCF06F00B0EC9
:100A6000DBCF07F00C0EDBCF08F00D0EDBCF09F06B
:100A70001200DBCFE6FF150EDBCFE6FF050EDB50E5
:100A8000E552E724E552E7241200DB50CED8010EF0
:100A9000F36E060EF3CFDBFF1200EE50EFCFEAFF4E
:100AA000E96E16C0EEFF17C0EEFF18C0EEFF120091
:100AB000D9CFE6FFDACFE6FFE1CFD9FFE2CFDAFF09
:100AC0001200DFCFE6FFE66A7DEC0BF0E552E5525F
:100AD000F3501200E76E080EE7CFDBFF1200EECFF7
:100AE00014F0EECF15F0EFCF16F0176A1200050ED6
:100AF000DBCF14F0150EDB50D88014541200010E19
:100B0000DBCF16F0020EDBCF17F0186A1200E552A9
:100B1000E5CFDAFFE7CFD9FF12000A0E14C0DBFFE2
:100B20000B0E15C0DBFF1200D9500A0F28EF06F09C
:100B3000F36E070EF3CFDBFF1200EECF14F0EFCF12
:100B400015F01200010EDB2A020E1200FC0EDBCFA4
:100B5000E6FFFD0EDBCFE6FF1200145E000E155A15
:100B6000F70E14C0DBFFF80E15C0DBFF14C0E9FF61
:100B700015C0EAFF1200DA20EA6EEF2AEECFF6FF88
:100B8000000EEF22EECFF7FFEF22EECFF8FF1200BC
:100B9000040EDBCFE6FF130EDB50E552E75C9ADF75
:100BA000DB5004DF060EDB501200090EDB500A0D8D
:100BB000F350DF24D00FE76E090EE7CFDBFFC0EF65
:100BC00004F0DB50F36E050EEEEF04F0F70EDBCF12
:100BD00014F0F80EDBCF15F01200DFCFE6FFCAEFFE
:100BE00004F028DF030EECDE6FEF05F01CEC00F0E4
:100BF000E552E552E552E55200091200BDDEEE5025
:100C0000EFCFEAFFE96E010E1200130EDB50F36E18
:100C1000040EEEEF04F0040EDB50F36E090EEEEF5F
:100C200004F0DBCFE6FFCAEF04F0E76E050EE7CF76
:100C3000DBFF12008BDFEDEF05F0DBCFE6FF86DF99
:100C4000F6EF05F0D950F90FE96EFF0EBBEF05F096
:0A0C5000E96E000EDA20EA6E1200D1
:060C5A0000000000000094
:100C60000000000000000000000000000000000084
:100C7000000012000F0EE66E8FEC0BF0E55200D074
:100C80001200050EE66E8FEC0BF0E55200D012005C
:100C9000060EC16E280EE66E0CEC09F0E55267EC0C
:100CA0000BF0000901E0FBD7030EE66EDCEC0AF066
:100CB000E55267EC0BF0000901E0FBD7030EE66E8E
:100CC000DCEC0AF0E55267EC0BF0000901E0FBD721
:100CD000030EE66EDCEC0AF0E55267EC0BF000095F
:100CE00001E0FBD7020EE66EDCEC0AF0E55267ECA1
:100CF0000BF0000901E0FBD7280EE66EDCEC0AF0F1
:100D0000E55267EC0BF0000901E0FBD7E66ADCEC8A
:100D10000AF0E552080EE66EDCEC0AF0E55267ECEC
:100D20000BF0000901E0FBD7E66ADCEC0AF0E552C3
:100D30000D0EE66EDCEC0AF0E55267EC0BF00009F4
:100D400001E0FBD7010EE66EDCEC0AF0E55267EC41
:100D50000BF0000901E0FBD7060EE66EDCEC0AF0B2
:100D6000E55267EC0BF0000901E0FBD7120067ECDD
:100D70000BF0000901E0FBD7010EE66EDCEC0AF097
:100D8000E5521200D9CFE6FFE1CFD9FF67EC0BF0B7
:100D9000000901E0FBD7FE0EDBCFE6FFB3EC0AF063
:100DA000E552E552E7CFD9FF1200D9CFE6FFE1CFF8
:100DB000D9FF040EE126D9CFE6FFDACFE6FFFE0E1B
:100DC000DBCF14F0156A14BE156814C0E6FF15C019
:100DD000E6FF1CEC08F0E552E552E552E552D9CFAA
:100DE000E6FFDACFE6FF05EC0BF0E552E552040E24
:100DF000E15C03E200D0E16AE552E16EE552E7CF43
:100E0000D9FF1200D9CFE6FFE1CFD9FF060EE126C8
:100E1000D9CFE6FFDACFE6FFFD0EDBCFE6FFFE0E11
:100E2000DBCFE6FF1CEC08F0E552E552E552E55257
:100E3000D9CFE6FFDACFE6FF05EC0BF0E552E5523D
:100E4000060EE15C03E200D0E16AE552E16EE55294
:100E5000E7CFD9FF1200D9CFE6FFE1CFD9FFFD0ED2
:100E6000DBCFE6FFFE0EDBCFE6FF05EC0BF0E55235
:100E7000E55200D0E552E7CFD9FF1200D9CFE6FF07
:100E8000E1CFD9FFFD0EDBCF14F0100EE76E141882
:100E9000E8AE02D0143403D0E750D880145402E2F4
:100EA000FD0EDB6AFE0EDB040CE167EC0BF00009C3
:100EB00001E0FBD7FD0EDB04E66E88EC0AF0E5529C
:100EC00007D0FD0EDB044009E66E88EC0AF0E5521F
:0A0ED00000D0E552E7CFD9FF120071
:060EDA00928096849494BE
:100EE00048EC06F0B7EC06F00C0EBD6E070ECA6EAD
:100EF000CC68810EC26E0E0EC16E1200EEDFC2848F
:100F0000C2B4FED7C250200B20E1C250100B1DE12D
:100F1000C250080B1AE1C3CF14F0C4CF15F0060E6F
:100F2000D89015321432E804FBE114C080F015C0EB
:100F300081F0C450BE6EC350E840E8403F0B0C093E
:100F4000BD6ECA84B90EC26E53D0C250200B50E0A1
:100F5000C250100B4DE0C250080B4AE0C3CF14F052
:100F6000C4CF15F0060ED89015321432E804FBE118
:100F700014C082F015C083F080C0E6FF81C0E6FF98
:100F800080C0E6FF81C0E6FF6E0E146E170E156E70
:100F9000166A14C0E6FF15C0E6FF16C0E6FF840E11
:100FA000E66E000EE66EB6EC08F0176E090EE15E16
:100FB000175082C0E6FF83C0E6FF82C0E6FF83C011
:100FC000E6FF5E0E146E170E156E166A14C0E6FF6D
:100FD00015C0E6FF16C0E6FF980EE66E000EE66E40
:100FE000B6EC08F0176E090EE15E1750810EC26E66
:100FF0000E0EC16E010EE66EE66E3EEC07F0E55297
:10100000E552840EE66E000EE66E2BEC07F0E5521C
:10101000E552010EE66E020EE66E3EEC07F0E5527A
:10102000E552980EE66E000EE66E2BEC07F0E552E8
:08103000E552C16A64D7120009
:08103800D9CFE6FFDACFE6FF95
:10104000FA0EE3CFD9FFFB0EE3CFDAFFFD0EE3523A
:1010500009E72D0EDE6EFC0EE31EE32AFD0ED8B46A
:10106000E306E31EE652E652E652FD0EE124E76E89
:10107000FF0EE220E46EE652F70EE3CFE6FFF70E36
:10108000E3CFE6FF8CEC08F0F90EE124E96EFF0EE9
:10109000E220EA6E7CEC08F00AE179EC08F009E164
:1010A0007CEC08F008E179EC08F007E108D087EC67
:1010B00008F082EC08F087EC08F082EC08F087EC8E
:1010C00008F0DE6AF90EE126FF0EE222FF0EE3CF02
:1010D000DAFFE552FF0EE3CFD9FFE552FC0EE12423
:1010E000E96EFF0EE220EA6EEECFF3FFEFCFF4FFE2
:1010F0001200EF380F0B1200EF500F0B02E1EE520F
:10110000D8841200EF380F0B300FDE6E1200EE5055
:101110000F0B300FDE6E1200FC0EE3CFE9FFFD0E69
:10112000E3CFEAFF100EE66EEE6AEE6AEF6AD89041
:10113000FD0EE336FE0EE336ED36ED36EF36FF0EEE
:10114000E30609E0ADEC08F0EE52ADEC08F0EE522B
:10115000ADEC08F0EDD7E56E1200030EEF24E8B613
:0C116000EF6E300EEF24E8BEEF6E000CC6
:04116C00D9CFE6FFF2
:10117000DACFE6FFE1CFD9FFE2CFDAFFE652E6525F
:10118000E652E652D950F90F146EFF0EDA20156EB2
:10119000020E14C0DBFF030E15C0DBFF020EDBCF17
:1011A000E6FF030EDBCFE6FFF90EDBCFE6FFFA0E1C
:1011B000DBCFE6FFFB0EDBCFE6FFD950FC0FE66E80
:1011C000FF0EDA20E66E32EC00F0146E070EE15CE2
:1011D00002E2E16AE552E16E1450F3CFDEFFF4CF94
:1011E000DDFFFC0EDBCFE9FFFD0EDBCFEAFFEF6A90
:1011F000DECF14F0DDCF15F014C0F3FF15C0F4FFFF
:10120000040EE15C02E2E16AE552E16EE552E5CFEF
:08121000DAFFE7CFD9FF12005D
:08121800D9CFE6FFDACFE6FFB3
:10122000E1CFD9FFE2CFDAFFF00E81169316939C3F
:10123000939A93988A9C8A9A8A983AEC06F0300E90
:1012400035D8050EE66E50EC0BF0E552300E2ED878
:10125000010EE66E50EC0BF0E552320E27D82BD87B
:10126000FEE129D8FEE1FD0EDBCFE6FFDCEC0AF063
:10127000E55221D8FEE1080E19D81DD8FEE10F0E67
:1012800015D819D8FEE1010E11D815D8FEE1040ECB
:101290000DD811D8FEE1800EE66E88EC0AF0E5521A
:1012A000E552E5CFDAFFE7CFD9FF1200E66EDCECBE
:0E12B0000AF0E552120067EC0BF00009120084
:0212BE002A0EF6
:1012C000F66E000EF76E000EF86E00010900F55084
:1012D000B16F0900F550B26F03E1B16701D03DD0A5
:1012E0000900F550AC6F0900F550AD6F0900F550DD
:1012F000AE6F09000900F550E96E0900F550EA6E7D
:10130000090009000900F550AF6F0900F550B06FF2
:1013100009000900F6CFB3F0F7CFB4F0F8CFB5F07D
:10132000ACC0F6FFADC0F7FFAEC0F8FF0001AF5391
:1013300002E1B05307E00900F550EE6EAF07F8E2A6
:10134000B007F9D7B3C0F6FFB4C0F7FFB5C0F8FFD8
:0C1350000001B107000EB25BBFD7120015
:04135C00D9CFE6FF00
:10136000DACFE6FFE1CFD9FFE2CFDAFFFB0EDBCF2A
:1013700014F0FC0EDBCF15F00001800E15141AE1FD
:10138000FB0EDBCFE9FFFC0EDBCFEAFFEECFF3FF76
:10139000EDCFF4FFEE2A000EEF22F3CFE9FFF4CFFA
:1013A000EAFFFD0EDBCFEFFFEF50156AF36E15C0BD
:1013B000F4FF10D0FB0EDB50FE0806E1FD0EDBCF84
:1013C000E6FFCDEC0BF005D0FD0EDBCFE6FFE4EC45
:1013D0000BF0E552E552E5CFDAFFE7CFD9FF120077
:1013E00006500B02F3CF02F0F4CF03F00C02F350DF
:1013F0000326000EF420046E06500D02F35004265E
:10140000000EF420056E06500E02F350052607501C
:101410000B02F3500326F4500422000E052207505D
:101420000C02F3500426F450052207500D02F3502D
:10143000052608500B02F3500426F45005220850EC
:101440000C02F350052609500B02F350052612003A
:10145000FE0EE3CFE9FFFF0EE3CFEAFFF36AF46A83
:10146000EE5203E0F34AF42AFBD71200FF0EE3CF5B
:10147000F8FFE552FF0EE3CFF7FFE552FF0EE3CF93
:10148000F6FFE552E66AE66AE66A0900F55209E007
:10149000FD0EE32A05E1FE0EE32A02E1FF0EE32A38
:1014A000F4D7FD0EE3CF07F0FE0EE3CF08F0FF0EFA
:0614B000E3CF09F0120079
:0A14B60009C013F008C012F008503E
:1014C0000D02F4CF07F0F3CF06F009500E02F4CF6F
:1014D00009F0F3CF08F00D02F3500726F45008226C
:1014E000E86A092212500E02F3500726F45008222F
:1014F000E86A09220EAE81EF0AF01250085E13501E
:10150000095A13AE000C0D50085E0E50095A000C1B
:10151000D9CFE6FFDACFE6FFE1CFD9FFE2CFDAFF9E
:10152000F00E93168116FD0EDB508009E8380F0B84
:101530000F0B81128A9C8A9A0FD8F00E8116FD0E2D
:10154000DB500F0B811208D80F0E9312E552E5CF36
:10155000DAFFE7CFD9FF12002DEC06F08A882DECD8
:0615600006F08A9812005B
:0A156600D9CFE6FFDACFE6FFE1CFB0
:10157000D9FFE2CFDAFFF00E93168116FD0EDB38AD
:101580000F0B0F0B81128A8A8A9C0FD8F00E8116DE
:10159000FD0EDB500F0B811208D80F0E9312E5528F
:1015A000E5CFDAFFE7CFD9FF12002DEC06F08A88ED
:0815B0002DEC06F08A981200F0
:0815B800D9CFE6FFDACFE6FF10
:1015C000E1CFD9FFE2CFDAFFF00E93168116FD0EC0
:1015D000DB380F0B0F0B81128A9C8A9A0FD8F00E02
:1015E0008116FD0EDB500F0B811208D80F0E9312DF
:1015F000E552E5CFDAFFE7CFD9FF12002DEC06F078
:0A1600008A882DEC06F08A9812008B
:06160A00D9CFE6FFDACFA4
:10161000E6FFE1CFD9FFE2CFDAFF16D80FE067ECA3
:101620000BF00009FCE110D8E66EB3EC0AF0E552CD
:10163000FC0EDB2AFD0EF1E3DB2AEFD7E552E5CF06
:10164000DAFFE7CFD9FF1200FC0EDBCFE9FFFD0E7A
:08165000DBCFEAFFEF501200AE
:08165800056A046A036A026AD4
:10166000200EE76ED8900636073608360936023661
:101670000336043605360B50025C0C5003580D50EF
:1016800004580E50055809E30B50025E0C50035AE3
:101690000D50045A0E50055A062AE72EE4D71200C0
:1016A000FF0EE3501C6EEF0E01D0F30EE76EE72E37
:1016B00057EF0BF00C0E1B6EE76AE72E5DEF0BF099
:0E16C0001B2E5CEF0BF01C2E55EF0BF01200F2
:0216CE008A8C04
:1016D0008A9A2DEC06F08A882DEC06F081A602D0BD
:1016E00003D8010C01D8000C8A982DEC06F08A88EA
:0A16F0002DEC06F08A988A9C120087
:0616FA00F36AF46AFF0E22
:10170000E124E96EFF0EE220EA6EED6607D02F0EAF
:0E171000EF6404D03A0EEF6001D0F32A12000D
:02171E00FF0EBC
:10172000E3501C6E480E01D04C0EE76EE72EFED73C
:0E173000E76AE72EFED71C2EF7D70000120046
:02173E00000E9B
:10174000F36E00EE00F0060E01D81200EA6002D03F
:0E175000EE6AFCD7F350E9601200EE6AFCD797
:02175E00414FF9
:101760007574203A25233558202534646400414996
:0D1770006E203A252335582025346464008E
:02177E0015EE66
:1017800000F025EE00F0F86A019C5FEC09F0E5EC52
:0A1790000BF07EEC07F0FBD712000F
:06179A00FF0EE350ACBAA3
:1017A00004D0AF6AAB8EAC8A949CACA2FED7AD6E6F
:0617B000F36EF46A120062
:0A17B600303132333435363738391C
:0717C00061626364656600CD
:0217C80012000D
:0217CA0012000B
:0417CC000000000019
:1017D000416E616C6F67496E203D20000000000083
:1017E00000000000416E616C6F674F75743D200012
:0817F0000000000000000000F1
:020000040030CA
:0100010022DC
:010003000EEE
:010006008178
:00000001FF
